{"abi":[{"type":"constructor","inputs":[],"stateMutability":"nonpayable"},{"type":"receive","stateMutability":"payable"},{"type":"function","name":"approvedPlatforms","inputs":[{"name":"","type":"address","internalType":"address"}],"outputs":[{"name":"","type":"bool","internalType":"bool"}],"stateMutability":"view"},{"type":"function","name":"balances","inputs":[{"name":"","type":"address","internalType":"address"}],"outputs":[{"name":"","type":"uint256","internalType":"uint256"}],"stateMutability":"view"},{"type":"function","name":"claimRewards","inputs":[{"name":"platform","type":"address","internalType":"address"},{"name":"epochs","type":"uint256[]","internalType":"uint256[]"}],"outputs":[],"stateMutability":"nonpayable"},{"type":"function","name":"copySettings","inputs":[{"name":"","type":"address","internalType":"address"},{"name":"","type":"address","internalType":"address"}],"outputs":[{"name":"allocationPercentage","type":"uint256","internalType":"uint256"},{"name":"maxBetAmount","type":"uint256","internalType":"uint256"},{"name":"isActive","type":"bool","internalType":"bool"}],"stateMutability":"view"},{"type":"function","name":"deposit","inputs":[],"outputs":[],"stateMutability":"payable"},{"type":"function","name":"emergencyWithdraw","inputs":[],"outputs":[],"stateMutability":"nonpayable"},{"type":"function","name":"executeCopyBet","inputs":[{"name":"follower","type":"address","internalType":"address"},{"name":"trader","type":"address","internalType":"address"},{"name":"platform","type":"address","internalType":"address"},{"name":"epoch","type":"uint256","internalType":"uint256"},{"name":"isBull","type":"bool","internalType":"bool"},{"name":"traderBetAmount","type":"uint256","internalType":"uint256"}],"outputs":[],"stateMutability":"nonpayable"},{"type":"function","name":"getCopySettings","inputs":[{"name":"follower","type":"address","internalType":"address"},{"name":"trader","type":"address","internalType":"address"}],"outputs":[{"name":"allocationPercentage","type":"uint256","internalType":"uint256"},{"name":"maxBetAmount","type":"uint256","internalType":"uint256"},{"name":"isActive","type":"bool","internalType":"bool"}],"stateMutability":"view"},{"type":"function","name":"owner","inputs":[],"outputs":[{"name":"","type":"address","internalType":"address"}],"stateMutability":"view"},{"type":"function","name":"pause","inputs":[],"outputs":[],"stateMutability":"nonpayable"},{"type":"function","name":"paused","inputs":[],"outputs":[{"name":"","type":"bool","internalType":"bool"}],"stateMutability":"view"},{"type":"function","name":"renounceOwnership","inputs":[],"outputs":[],"stateMutability":"nonpayable"},{"type":"function","name":"setCopyFollow","inputs":[{"name":"trader","type":"address","internalType":"address"},{"name":"allocationPercentage","type":"uint256","internalType":"uint256"},{"name":"maxBetAmount","type":"uint256","internalType":"uint256"}],"outputs":[],"stateMutability":"nonpayable"},{"type":"function","name":"setPlatformApproval","inputs":[{"name":"platform","type":"address","internalType":"address"},{"name":"approved","type":"bool","internalType":"bool"}],"outputs":[],"stateMutability":"nonpayable"},{"type":"function","name":"stopCopyFollow","inputs":[{"name":"trader","type":"address","internalType":"address"}],"outputs":[],"stateMutability":"nonpayable"},{"type":"function","name":"transferOwnership","inputs":[{"name":"newOwner","type":"address","internalType":"address"}],"outputs":[],"stateMutability":"nonpayable"},{"type":"function","name":"unpause","inputs":[],"outputs":[],"stateMutability":"nonpayable"},{"type":"function","name":"withdraw","inputs":[{"name":"amount","type":"uint256","internalType":"uint256"}],"outputs":[],"stateMutability":"nonpayable"},{"type":"event","name":"BetCopied","inputs":[{"name":"follower","type":"address","indexed":true,"internalType":"address"},{"name":"trader","type":"address","indexed":true,"internalType":"address"},{"name":"platform","type":"address","indexed":true,"internalType":"address"},{"name":"epoch","type":"uint256","indexed":false,"internalType":"uint256"},{"name":"amount","type":"uint256","indexed":false,"internalType":"uint256"},{"name":"position","type":"string","indexed":false,"internalType":"string"}],"anonymous":false},{"type":"event","name":"CopyFollowActivated","inputs":[{"name":"follower","type":"address","indexed":true,"internalType":"address"},{"name":"trader","type":"address","indexed":true,"internalType":"address"},{"name":"allocationPercentage","type":"uint256","indexed":false,"internalType":"uint256"},{"name":"maxBetAmount","type":"uint256","indexed":false,"internalType":"uint256"}],"anonymous":false},{"type":"event","name":"CopyFollowDeactivated","inputs":[{"name":"follower","type":"address","indexed":true,"internalType":"address"},{"name":"trader","type":"address","indexed":true,"internalType":"address"}],"anonymous":false},{"type":"event","name":"Deposited","inputs":[{"name":"user","type":"address","indexed":true,"internalType":"address"},{"name":"amount","type":"uint256","indexed":false,"internalType":"uint256"}],"anonymous":false},{"type":"event","name":"OwnershipTransferred","inputs":[{"name":"previousOwner","type":"address","indexed":true,"internalType":"address"},{"name":"newOwner","type":"address","indexed":true,"internalType":"address"}],"anonymous":false},{"type":"event","name":"Paused","inputs":[{"name":"account","type":"address","indexed":false,"internalType":"address"}],"anonymous":false},{"type":"event","name":"PlatformApproved","inputs":[{"name":"platform","type":"address","indexed":true,"internalType":"address"},{"name":"approved","type":"bool","indexed":false,"internalType":"bool"}],"anonymous":false},{"type":"event","name":"RewardsClaimed","inputs":[{"name":"user","type":"address","indexed":true,"internalType":"address"},{"name":"amount","type":"uint256","indexed":false,"internalType":"uint256"}],"anonymous":false},{"type":"event","name":"Unpaused","inputs":[{"name":"account","type":"address","indexed":false,"internalType":"address"}],"anonymous":false},{"type":"event","name":"Withdrawn","inputs":[{"name":"user","type":"address","indexed":true,"internalType":"address"},{"name":"amount","type":"uint256","indexed":false,"internalType":"uint256"}],"anonymous":false},{"type":"error","name":"EnforcedPause","inputs":[]},{"type":"error","name":"ExpectedPause","inputs":[]},{"type":"error","name":"OwnableInvalidOwner","inputs":[{"name":"owner","type":"address","internalType":"address"}]},{"type":"error","name":"OwnableUnauthorizedAccount","inputs":[{"name":"account","type":"address","internalType":"address"}]},{"type":"error","name":"ReentrancyGuardReentrantCall","inputs":[]}],"bytecode":{"object":"0x608060405234801561000f575f80fd5b50335f73ffffffffffffffffffffffffffffffffffffffff168173ffffffffffffffffffffffffffffffffffffffff1603610081575f6040517f1e4fbdf700000000000000000000000000000000000000000000000000000000815260040161007891906101ec565b60405180910390fd5b610090816100ba60201b60201c565b5060016100af6100a461017b60201b60201c565b6101a460201b60201c565b5f0181905550610205565b5f805f9054906101000a900473ffffffffffffffffffffffffffffffffffffffff169050815f806101000a81548173ffffffffffffffffffffffffffffffffffffffff021916908373ffffffffffffffffffffffffffffffffffffffff1602179055508173ffffffffffffffffffffffffffffffffffffffff168173ffffffffffffffffffffffffffffffffffffffff167f8be0079c531659141344cd1fd0a4f28419497f9722a3daafe3b4186f6b6457e060405160405180910390a35050565b5f7f9b779b17422d0df92223018b32b4d1fa46e071723d6817e2486d003becc55f005f1b905090565b5f819050919050565b5f73ffffffffffffffffffffffffffffffffffffffff82169050919050565b5f6101d6826101ad565b9050919050565b6101e6816101cc565b82525050565b5f6020820190506101ff5f8301846101dd565b92915050565b61248d806102125f395ff3fe60806040526004361061010c575f3560e01c8063715018a611610094578063d0e30db011610063578063d0e30db01461032d578063db2e21bc14610337578063ddf843131461034d578063f2fde38b14610375578063fda49e401461039d57610113565b8063715018a6146102af5780638456cb59146102c55780638da5cb5b146102db578063c6ddbca81461030557610113565b806327e235e3116100db57806327e235e3146101cd5780632e1a7d4d146102095780633f4ba83a14610231578063455ab8a0146102475780635c975abb1461028557610113565b806305231dea146101175780630b0874c61461013f5780630d918dda1461017d5780630f4a7cf3146101a557610113565b3661011357005b5f80fd5b348015610122575f80fd5b5061013d6004803603810190610138919061197b565b6103d9565b005b34801561014a575f80fd5b50610165600480360381019061016091906119d8565b6105b0565b60405161017493929190611a48565b60405180910390f35b348015610188575f80fd5b506101a3600480360381019061019e9190611aa7565b610682565b005b3480156101b0575f80fd5b506101cb60048036038101906101c69190611b0f565b610730565b005b3480156101d8575f80fd5b506101f360048036038101906101ee9190611b5f565b6109dd565b6040516102009190611b8a565b60405180910390f35b348015610214575f80fd5b5061022f600480360381019061022a9190611ba3565b6109f2565b005b34801561023c575f80fd5b50610245610c19565b005b348015610252575f80fd5b5061026d600480360381019061026891906119d8565b610c2b565b60405161027c93929190611a48565b60405180910390f35b348015610290575f80fd5b50610299610c68565b6040516102a69190611bce565b60405180910390f35b3480156102ba575f80fd5b506102c3610c7d565b005b3480156102d0575f80fd5b506102d9610c90565b005b3480156102e6575f80fd5b506102ef610ca2565b6040516102fc9190611bf6565b60405180910390f35b348015610310575f80fd5b5061032b60048036038101906103269190611b5f565b610cc9565b005b610335610e7f565b005b348015610342575f80fd5b5061034b610f74565b005b348015610358575f80fd5b50610373600480360381019061036e9190611c0f565b611033565b005b348015610380575f80fd5b5061039b60048036038101906103969190611b5f565b6114b9565b005b3480156103a8575f80fd5b506103c360048036038101906103be9190611b5f565b61153d565b6040516103d09190611bce565b60405180910390f35b6103e161155a565b6103e961157c565b60035f8473ffffffffffffffffffffffffffffffffffffffff1673ffffffffffffffffffffffffffffffffffffffff1681526020019081526020015f205f9054906101000a900460ff16610472576040517f08c379a000000000000000000000000000000000000000000000000000000000815260040161046990611cf2565b60405180910390fd5b5f4790505f8490508073ffffffffffffffffffffffffffffffffffffffff16636ba4c13885856040518363ffffffff1660e01b81526004016104b5929190611d88565b5f604051808303815f87803b1580156104cc575f80fd5b505af11580156104de573d5f803e3d5ffd5b505050505f4790505f83826104f39190611dd7565b90505f81111561059f578060015f3373ffffffffffffffffffffffffffffffffffffffff1673ffffffffffffffffffffffffffffffffffffffff1681526020019081526020015f205f8282546105499190611e0a565b925050819055503373ffffffffffffffffffffffffffffffffffffffff167ffc30cddea38e2bf4d6ea7d3f9ed3b6ad7f176419f4963bd81318067a4aee73fe826040516105969190611b8a565b60405180910390a25b505050506105ab6115bd565b505050565b5f805f8060025f8773ffffffffffffffffffffffffffffffffffffffff1673ffffffffffffffffffffffffffffffffffffffff1681526020019081526020015f205f8673ffffffffffffffffffffffffffffffffffffffff1673ffffffffffffffffffffffffffffffffffffffff1681526020019081526020015f206040518060600160405290815f820154815260200160018201548152602001600282015f9054906101000a900460ff1615151515815250509050805f015181602001518260400151935093509350509250925092565b61068a6115d7565b8060035f8473ffffffffffffffffffffffffffffffffffffffff1673ffffffffffffffffffffffffffffffffffffffff1681526020019081526020015f205f6101000a81548160ff0219169083151502179055508173ffffffffffffffffffffffffffffffffffffffff167f48c978df4e30dee3e0a9a77cc33a2e92539dd3a47334814ad1414961aec22a67826040516107249190611bce565b60405180910390a25050565b61073861157c565b5f73ffffffffffffffffffffffffffffffffffffffff168373ffffffffffffffffffffffffffffffffffffffff16036107a6576040517f08c379a000000000000000000000000000000000000000000000000000000000815260040161079d90611e87565b60405180910390fd5b3373ffffffffffffffffffffffffffffffffffffffff168373ffffffffffffffffffffffffffffffffffffffff1603610814576040517f08c379a000000000000000000000000000000000000000000000000000000000815260040161080b90611eef565b60405180910390fd5b60018210158015610826575060648211155b610865576040517f08c379a000000000000000000000000000000000000000000000000000000000815260040161085c90611f57565b60405180910390fd5b5f81116108a7576040517f08c379a000000000000000000000000000000000000000000000000000000000815260040161089e90611fbf565b60405180910390fd5b60405180606001604052808381526020018281526020016001151581525060025f3373ffffffffffffffffffffffffffffffffffffffff1673ffffffffffffffffffffffffffffffffffffffff1681526020019081526020015f205f8573ffffffffffffffffffffffffffffffffffffffff1673ffffffffffffffffffffffffffffffffffffffff1681526020019081526020015f205f820151815f0155602082015181600101556040820151816002015f6101000a81548160ff0219169083151502179055509050508273ffffffffffffffffffffffffffffffffffffffff163373ffffffffffffffffffffffffffffffffffffffff167f298ff3ecaa2c65201e4172c99ef0ed9af557d9c991edc395ebb64f7d26ba3cf584846040516109d0929190611fdd565b60405180910390a3505050565b6001602052805f5260405f205f915090505481565b6109fa61155a565b610a0261157c565b5f8111610a44576040517f08c379a0000000000000000000000000000000000000000000000000000000008152600401610a3b9061204e565b60405180910390fd5b8060015f3373ffffffffffffffffffffffffffffffffffffffff1673ffffffffffffffffffffffffffffffffffffffff1681526020019081526020015f20541015610ac4576040517f08c379a0000000000000000000000000000000000000000000000000000000008152600401610abb906120b6565b60405180910390fd5b8060015f3373ffffffffffffffffffffffffffffffffffffffff1673ffffffffffffffffffffffffffffffffffffffff1681526020019081526020015f205f828254610b109190611dd7565b925050819055505f3373ffffffffffffffffffffffffffffffffffffffff1682604051610b3c90612101565b5f6040518083038185875af1925050503d805f8114610b76576040519150601f19603f3d011682016040523d82523d5f602084013e610b7b565b606091505b5050905080610bbf576040517f08c379a0000000000000000000000000000000000000000000000000000000008152600401610bb69061215f565b60405180910390fd5b3373ffffffffffffffffffffffffffffffffffffffff167f7084f5476618d8e60b11ef0d7d3f06914655adb8793e28ff7f018d4c76d505d583604051610c059190611b8a565b60405180910390a250610c166115bd565b50565b610c216115d7565b610c2961165e565b565b6002602052815f5260405f20602052805f5260405f205f9150915050805f015490806001015490806002015f9054906101000a900460ff16905083565b5f8060149054906101000a900460ff16905090565b610c856115d7565b610c8e5f6116bf565b565b610c986115d7565b610ca0611780565b565b5f805f9054906101000a900473ffffffffffffffffffffffffffffffffffffffff16905090565b60025f3373ffffffffffffffffffffffffffffffffffffffff1673ffffffffffffffffffffffffffffffffffffffff1681526020019081526020015f205f8273ffffffffffffffffffffffffffffffffffffffff1673ffffffffffffffffffffffffffffffffffffffff1681526020019081526020015f206002015f9054906101000a900460ff16610d90576040517f08c379a0000000000000000000000000000000000000000000000000000000008152600401610d87906121c7565b60405180910390fd5b5f60025f3373ffffffffffffffffffffffffffffffffffffffff1673ffffffffffffffffffffffffffffffffffffffff1681526020019081526020015f205f8373ffffffffffffffffffffffffffffffffffffffff1673ffffffffffffffffffffffffffffffffffffffff1681526020019081526020015f206002015f6101000a81548160ff0219169083151502179055508073ffffffffffffffffffffffffffffffffffffffff163373ffffffffffffffffffffffffffffffffffffffff167f324d61812272b31de889597d0827e1ad8ed8754a200c6a5cd61ef3a94146ef4460405160405180910390a350565b610e8761155a565b5f3411610ec9576040517f08c379a0000000000000000000000000000000000000000000000000000000008152600401610ec09061222f565b60405180910390fd5b3460015f3373ffffffffffffffffffffffffffffffffffffffff1673ffffffffffffffffffffffffffffffffffffffff1681526020019081526020015f205f828254610f159190611e0a565b925050819055503373ffffffffffffffffffffffffffffffffffffffff167f2da466a7b24304f47e87fa2e1e5a81b9831ce54fec19055ce277ca2f39ba42c434604051610f629190611b8a565b60405180910390a2610f726115bd565b565b610f7c6115d7565b5f4790505f610f89610ca2565b73ffffffffffffffffffffffffffffffffffffffff1682604051610fac90612101565b5f6040518083038185875af1925050503d805f8114610fe6576040519150601f19603f3d011682016040523d82523d5f602084013e610feb565b606091505b505090508061102f576040517f08c379a000000000000000000000000000000000000000000000000000000000815260040161102690612297565b60405180910390fd5b5050565b61103b6115d7565b61104361155a565b61104b61157c565b60035f8573ffffffffffffffffffffffffffffffffffffffff1673ffffffffffffffffffffffffffffffffffffffff1681526020019081526020015f205f9054906101000a900460ff166110d4576040517f08c379a00000000000000000000000000000000000000000000000000000000081526004016110cb90611cf2565b60405180910390fd5b5f60025f8873ffffffffffffffffffffffffffffffffffffffff1673ffffffffffffffffffffffffffffffffffffffff1681526020019081526020015f205f8773ffffffffffffffffffffffffffffffffffffffff1673ffffffffffffffffffffffffffffffffffffffff1681526020019081526020015f206040518060600160405290815f820154815260200160018201548152602001600282015f9054906101000a900460ff161515151581525050905080604001516111cb576040517f08c379a00000000000000000000000000000000000000000000000000000000081526004016111c2906122ff565b60405180910390fd5b5f6064825f0151846111dd919061231d565b6111e7919061238b565b905081602001518111156111fd57816020015190505b8060015f8a73ffffffffffffffffffffffffffffffffffffffff1673ffffffffffffffffffffffffffffffffffffffff1681526020019081526020015f2054101561127d576040517f08c379a0000000000000000000000000000000000000000000000000000000008152600401611274906120b6565b60405180910390fd5b8060015f8a73ffffffffffffffffffffffffffffffffffffffff1673ffffffffffffffffffffffffffffffffffffffff1681526020019081526020015f205f8282546112c99190611dd7565b925050819055505f8690508415611347578073ffffffffffffffffffffffffffffffffffffffff166357fb096f83886040518363ffffffff1660e01b81526004016113149190611b8a565b5f604051808303818588803b15801561132b575f80fd5b505af115801561133d573d5f803e3d5ffd5b50505050506113b0565b8073ffffffffffffffffffffffffffffffffffffffff1663aa6b873a83886040518363ffffffff1660e01b81526004016113819190611b8a565b5f604051808303818588803b158015611398575f80fd5b505af11580156113aa573d5f803e3d5ffd5b50505050505b8673ffffffffffffffffffffffffffffffffffffffff168873ffffffffffffffffffffffffffffffffffffffff168a73ffffffffffffffffffffffffffffffffffffffff167fd29c129f7d98684fb600b3f6951a0a21c1552b280716586b9fb8459f096dd81789868a611458576040518060400160405280600481526020017f426561720000000000000000000000000000000000000000000000000000000081525061148f565b6040518060400160405280600481526020017f42756c6c000000000000000000000000000000000000000000000000000000008152505b60405161149e9392919061241b565b60405180910390a45050506114b16115bd565b505050505050565b6114c16115d7565b5f73ffffffffffffffffffffffffffffffffffffffff168173ffffffffffffffffffffffffffffffffffffffff1603611531575f6040517f1e4fbdf70000000000000000000000000000000000000000000000000000000081526004016115289190611bf6565b60405180910390fd5b61153a816116bf565b50565b6003602052805f5260405f205f915054906101000a900460ff1681565b6115626117e2565b600261157461156f611823565b61184c565b5f0181905550565b611584610c68565b156115bb576040517fd93c066500000000000000000000000000000000000000000000000000000000815260040160405180910390fd5b565b60016115cf6115ca611823565b61184c565b5f0181905550565b6115df611855565b73ffffffffffffffffffffffffffffffffffffffff166115fd610ca2565b73ffffffffffffffffffffffffffffffffffffffff161461165c57611620611855565b6040517f118cdaa70000000000000000000000000000000000000000000000000000000081526004016116539190611bf6565b60405180910390fd5b565b61166661185c565b5f8060146101000a81548160ff0219169083151502179055507f5db9ee0a495bf2e6ff9c91a7834c1ba4fdd244a5e8aa4e537bd38aeae4b073aa6116a8611855565b6040516116b59190611bf6565b60405180910390a1565b5f805f9054906101000a900473ffffffffffffffffffffffffffffffffffffffff169050815f806101000a81548173ffffffffffffffffffffffffffffffffffffffff021916908373ffffffffffffffffffffffffffffffffffffffff1602179055508173ffffffffffffffffffffffffffffffffffffffff168173ffffffffffffffffffffffffffffffffffffffff167f8be0079c531659141344cd1fd0a4f28419497f9722a3daafe3b4186f6b6457e060405160405180910390a35050565b61178861157c565b60015f60146101000a81548160ff0219169083151502179055507f62e78cea01bee320cd4e420270b5ea74000d11b0c9f74754ebdbfc544b05a2586117cb611855565b6040516117d89190611bf6565b60405180910390a1565b6117ea61189c565b15611821576040517f3ee5aeb500000000000000000000000000000000000000000000000000000000815260040160405180910390fd5b565b5f7f9b779b17422d0df92223018b32b4d1fa46e071723d6817e2486d003becc55f005f1b905090565b5f819050919050565b5f33905090565b611864610c68565b61189a576040517f8dfc202b00000000000000000000000000000000000000000000000000000000815260040160405180910390fd5b565b5f60026118af6118aa611823565b61184c565b5f015414905090565b5f80fd5b5f80fd5b5f73ffffffffffffffffffffffffffffffffffffffff82169050919050565b5f6118e9826118c0565b9050919050565b6118f9816118df565b8114611903575f80fd5b50565b5f81359050611914816118f0565b92915050565b5f80fd5b5f80fd5b5f80fd5b5f8083601f84011261193b5761193a61191a565b5b8235905067ffffffffffffffff8111156119585761195761191e565b5b60208301915083602082028301111561197457611973611922565b5b9250929050565b5f805f60408486031215611992576119916118b8565b5b5f61199f86828701611906565b935050602084013567ffffffffffffffff8111156119c0576119bf6118bc565b5b6119cc86828701611926565b92509250509250925092565b5f80604083850312156119ee576119ed6118b8565b5b5f6119fb85828601611906565b9250506020611a0c85828601611906565b9150509250929050565b5f819050919050565b611a2881611a16565b82525050565b5f8115159050919050565b611a4281611a2e565b82525050565b5f606082019050611a5b5f830186611a1f565b611a686020830185611a1f565b611a756040830184611a39565b949350505050565b611a8681611a2e565b8114611a90575f80fd5b50565b5f81359050611aa181611a7d565b92915050565b5f8060408385031215611abd57611abc6118b8565b5b5f611aca85828601611906565b9250506020611adb85828601611a93565b9150509250929050565b611aee81611a16565b8114611af8575f80fd5b50565b5f81359050611b0981611ae5565b92915050565b5f805f60608486031215611b2657611b256118b8565b5b5f611b3386828701611906565b9350506020611b4486828701611afb565b9250506040611b5586828701611afb565b9150509250925092565b5f60208284031215611b7457611b736118b8565b5b5f611b8184828501611906565b91505092915050565b5f602082019050611b9d5f830184611a1f565b92915050565b5f60208284031215611bb857611bb76118b8565b5b5f611bc584828501611afb565b91505092915050565b5f602082019050611be15f830184611a39565b92915050565b611bf0816118df565b82525050565b5f602082019050611c095f830184611be7565b92915050565b5f805f805f8060c08789031215611c2957611c286118b8565b5b5f611c3689828a01611906565b9650506020611c4789828a01611906565b9550506040611c5889828a01611906565b9450506060611c6989828a01611afb565b9350506080611c7a89828a01611a93565b92505060a0611c8b89828a01611afb565b9150509295509295509295565b5f82825260208201905092915050565b7f506c6174666f726d206e6f7420617070726f76656400000000000000000000005f82015250565b5f611cdc601583611c98565b9150611ce782611ca8565b602082019050919050565b5f6020820190508181035f830152611d0981611cd0565b9050919050565b5f82825260208201905092915050565b5f80fd5b82818337505050565b5f611d388385611d10565b93507f07ffffffffffffffffffffffffffffffffffffffffffffffffffffffffffffff831115611d6b57611d6a611d20565b5b602083029250611d7c838584611d24565b82840190509392505050565b5f6020820190508181035f830152611da1818486611d2d565b90509392505050565b7f4e487b71000000000000000000000000000000000000000000000000000000005f52601160045260245ffd5b5f611de182611a16565b9150611dec83611a16565b9250828203905081811115611e0457611e03611daa565b5b92915050565b5f611e1482611a16565b9150611e1f83611a16565b9250828201905080821115611e3757611e36611daa565b5b92915050565b7f496e76616c6964207472616465722061646472657373000000000000000000005f82015250565b5f611e71601683611c98565b9150611e7c82611e3d565b602082019050919050565b5f6020820190508181035f830152611e9e81611e65565b9050919050565b7f43616e6e6f7420636f707920796f757273656c660000000000000000000000005f82015250565b5f611ed9601483611c98565b9150611ee482611ea5565b602082019050919050565b5f6020820190508181035f830152611f0681611ecd565b9050919050565b7f416c6c6f636174696f6e206d75737420626520312d31303025000000000000005f82015250565b5f611f41601983611c98565b9150611f4c82611f0d565b602082019050919050565b5f6020820190508181035f830152611f6e81611f35565b9050919050565b7f4d61782062657420616d6f756e74206d757374206265203e20300000000000005f82015250565b5f611fa9601a83611c98565b9150611fb482611f75565b602082019050919050565b5f6020820190508181035f830152611fd681611f9d565b9050919050565b5f604082019050611ff05f830185611a1f565b611ffd6020830184611a1f565b9392505050565b7f576974686472617720616d6f756e74206d757374206265203e203000000000005f82015250565b5f612038601b83611c98565b915061204382612004565b602082019050919050565b5f6020820190508181035f8301526120658161202c565b9050919050565b7f496e73756666696369656e742062616c616e63650000000000000000000000005f82015250565b5f6120a0601483611c98565b91506120ab8261206c565b602082019050919050565b5f6020820190508181035f8301526120cd81612094565b9050919050565b5f81905092915050565b50565b5f6120ec5f836120d4565b91506120f7826120de565b5f82019050919050565b5f61210b826120e1565b9150819050919050565b7f5769746864726177616c206661696c65640000000000000000000000000000005f82015250565b5f612149601183611c98565b915061215482612115565b602082019050919050565b5f6020820190508181035f8301526121768161213d565b9050919050565b7f4e6f7420666f6c6c6f77696e67207468697320747261646572000000000000005f82015250565b5f6121b1601983611c98565b91506121bc8261217d565b602082019050919050565b5f6020820190508181035f8301526121de816121a5565b9050919050565b7f4465706f73697420616d6f756e74206d757374206265203e20300000000000005f82015250565b5f612219601a83611c98565b9150612224826121e5565b602082019050919050565b5f6020820190508181035f8301526122468161220d565b9050919050565b7f456d657267656e6379207769746864726177616c206661696c656400000000005f82015250565b5f612281601b83611c98565b915061228c8261224d565b602082019050919050565b5f6020820190508181035f8301526122ae81612275565b9050919050565b7f436f70792074726164696e67206e6f74206163746976650000000000000000005f82015250565b5f6122e9601783611c98565b91506122f4826122b5565b602082019050919050565b5f6020820190508181035f830152612316816122dd565b9050919050565b5f61232782611a16565b915061233283611a16565b925082820261234081611a16565b9150828204841483151761235757612356611daa565b5b5092915050565b7f4e487b71000000000000000000000000000000000000000000000000000000005f52601260045260245ffd5b5f61239582611a16565b91506123a083611a16565b9250826123b0576123af61235e565b5b828204905092915050565b5f81519050919050565b8281835e5f83830152505050565b5f601f19601f8301169050919050565b5f6123ed826123bb565b6123f78185611c98565b93506124078185602086016123c5565b612410816123d3565b840191505092915050565b5f60608201905061242e5f830186611a1f565b61243b6020830185611a1f565b818103604083015261244d81846123e3565b905094935050505056fea2646970667358221220ccba7965041818e1f4cc54d5c6d28c32ede67b57474fefba183438cd40d8ae2864736f6c634300081a0033","linkReferences":{}},"methodIdentifiers":{"approvedPlatforms(address)":"fda49e40","balances(address)":"27e235e3","claimRewards(address,uint256[])":"05231dea","copySettings(address,address)":"455ab8a0","deposit()":"d0e30db0","emergencyWithdraw()":"db2e21bc","executeCopyBet(address,address,address,uint256,bool,uint256)":"ddf84313","getCopySettings(address,address)":"0b0874c6","owner()":"8da5cb5b","pause()":"8456cb59","paused()":"5c975abb","renounceOwnership()":"715018a6","setCopyFollow(address,uint256,uint256)":"0f4a7cf3","setPlatformApproval(address,bool)":"0d918dda","stopCopyFollow(address)":"c6ddbca8","transferOwnership(address)":"f2fde38b","unpause()":"3f4ba83a","withdraw(uint256)":"2e1a7d4d"},"id":0}